:020000040800F2
:10000000780B0020B50100081923000831200008F2
:100010001523000841030008B12700080000000074
:10002000000000000000000000000000C9230008DC
:10003000550300080000000089230008212400085F
:10004000CF010008CF010008CF010008CF01000850
:10005000CF010008CF010008CF010008CF01000840
:10006000CF010008CF010008CF01000845030008B8
:10007000CF010008CF010008CF010008CF01000820
:10008000CF010008CF010008CF010008CF01000810
:10009000CF010008CF010008CF010008CF01000800
:1000A000CF010008CF010008CF010008CF010008F0
:1000B000CF010008CF010008CF010008CF010008E0
:1000C000CF010008CF010008CF010008CF010008D0
:1000D000CF010008CF010008CF010008CF010008C0
:1000E000CF010008CF010008CF01000800F002F89E
:1000F00000F050F814A696E8000CB244B344DA4578
:1001000001D100F047F8BAE80F000FA696E83000DA
:10011000A5EB040504EB0607AAEB0704A7F101070A
:100120004FEA15154FEA3414A4F10104AC4201D38F
:1001300000F030F813F0010F18BFFB1A43F0010371
:1001400000F001F8DBE7184780270000A027000037
:10015000103A24BF78C878C1FAD8520724BF30C8F3
:1001600030C144BF04680C60704700007047000055
:100170000023002400250026103A28BF78C1FBD8B0
:10018000520728BF30C148BF0B6070471FB51FBD65
:1001900010B510BD00F058F81146FFF7F7FF02F058
:1001A00069FB00F076F803B4FFF7F2FF03BC00F040
:1001B0007DF800000948804709480047FEE7FEE750
:1001C000FEE7FEE7FEE7FEE7FEE7FEE7FEE7FEE707
:1001D00004480549054A064B70470000B924000849
:1001E000ED00000878010020780B00207803002043
:1001F000780300204FF0000200B51346944696465F
:10020000203922BFA0E80C50A0E80C50B1F1200129
:10021000BFF4F7AF090728BFA0E80C5048BF0CC0D7
:100220005DF804EB890028BF40F8042B08BF704735
:1002300048BF20F8022B11F0804F18BF00F8012BA7
:100240007047704770477047754600F02BF8AE4610
:1002500005006946534620F00700854618B020B5D2
:10026000FFF7B6FFBDE820404FF000064FF0000753
:100270004FF000084FF0000BAC46ACE8C009ACE80A
:10028000C009ACE8C009ACE8C00921F007018D46FF
:10029000704710B50446AFF300802046BDE810401B
:1002A000FFF781BF00487047100000200149182067
:1002B000ABBEFEE7260002007047000080B584B0A8
:1002C000029000200190029800688068C00770B317
:1002D000FFE702980168886820F00100886000F05C
:1002E000D3FD0190FFE7029800688068C007E8B17D
:1002F000FFE700F0C9FD0199401A032815D3FFE775
:10030000029800688068C00770B1FFE70299886AA8
:1003100040F0100088620299C86A40F00100C8628B
:1003200001208DF80F0006E0FFE7DCE7FFE7002083
:100330008DF80F00FFE79DF80F0004B080BD0000AE
:10034000FFE7FEE780B540F2A000C2F2000000F037
:1003500057FA80BD7047000081B0EFF3108072B68D
:100360000090FFE7FEE7000085B0039002910020B7
:100370008DF807000090FFE7039890F8240001280B
:1003800004D1FFE702208DF81300C3E00399012098
:1003900081F82400FFE7FFE702984068062812D89A
:1003A000FFE703980068406B029A1168526802EBFD
:1003B0008202053A1F2393409843914008430399D2
:1003C0000968486329E0029840680C2812D8FFE7C2
:1003D00003980068006B029A1168526802EB82026F
:1003E000233A1F2393409843914008430399096897
:1003F000086311E003980068C06A029A11685268A5
:1004000002EB8202413A1F239340984391400843F4
:1004100003990968C862FFE7FFE7029800680A28A5
:1004200012D3FFE703980068C06802990A688968D8
:1004300002EB42021E3A072393409843914008433F
:1004400003990968C86010E0039800680069029980
:100450000A68896802EB420207239340984391405F
:100460000843039909680861FFE7029800681028AB
:1004700005D0FFE702980068112840D1FFE70398F4
:10048000006842F20041C4F2010188422DD1FFE729
:100490000398006880680002002825D4FFE70398CD
:1004A0000168886840F4000088600298006810289D
:1004B00019D1FFE740F20000C2F2000000684DF6DB
:1004C0008361C4F21B31A0FB0110800C00EB8000A3
:1004D00040000090FFE7009820B1FFE70098013846
:1004E0000090F8E7FFE7FFE708E00399886A40F02B
:1004F0002000886201208DF80700FFE7FFE7FFE793
:100500000399002081F82400FFE79DF807008DF88B
:100510001300FFE79DF8130005B0704780B588B061
:10052000069000208DF81700049003900290069822
:1005300020B9FFE701208DF81F00F4E006988068DD
:1005400030B1FFE70698007D08B1FFE7FFE7FFE75E
:100550000698806A50B9FFE706990020C86206999C
:1005600081F82400069800F0E3F8FFE70698FFF70B
:10057000A5FE8DF817000698806AC006002800F1D5
:10058000C480FFE79DF81700002840F0BE80FFE719
:100590000698806A40F0020020F48850069988622C
:1005A00006994868CA691043097B40EA41010398EB
:1005B00008430390069881680120B1F5807F01907F
:1005C00008D0FFE7069880680138B0FA80F040094B
:1005D0000190FFE701990498CA0740F48071002A4E
:1005E00018BF084604900698007D01281ED1FFE739
:1005F0000698007B70B9FFE7069881694EF200000B
:10060000CFF6FF7000EB41300499084340F40060DE
:1006100004900AE00699886A40F0200088620699F2
:10062000C86A40F00100C862FFE7FFE7069800686B
:10063000406820F4694004990843069909684860B5
:100640000698006880684FF2FD71CFF6E1710840AE
:100650000399084306990968886006988168012013
:10066000B1F5807F009008D0FFE7069880680138D8
:10067000B0FA80F040090090FFE7009800F0010018
:10068000002818BF4FF48070B0F5807F09D1FFE7D4
:10069000069801690020CFF6F07000EB015002903F
:1006A000FFE706980068C06A20F4700002990843CA
:1006B00006990968C86206980068806840F6FE617D
:1006C000CFF61F710840039988420CD1FFE70699C5
:1006D0000020C8620698806A40F0010020F0020005
:1006E0000699886210E00698806A40F0100020F0B9
:1006F0000200069988620699C86A40F00100C86243
:1007000001208DF81700FFE708E00699886A40F09D
:100710001000886201208DF81700FFE79DF8170090
:100720008DF81F00FFE79DF81F0008B080BD000096
:1007300080B588B007900020069005900490039043
:100740000798006842F20041C4F20101884254D186
:10075000FFE7FFE741F21800C4F20200016841F42C
:1007600000710160006800F4007002900298FFE7D9
:10077000FFE741F21800C4F20200016841F00401F1
:100780000160006800F0040001900198FFE701207B
:1007900003900320049040F60000C4F2010003A976
:1007A00000F0CAF940F2A000C2F200000090082157
:1007B000C4F2020101600021416081608021C160BA
:1007C0004FF4807101614FF48061416120218161AA
:1007D0004FF48051C16100F057F918B1FFE7FFF7FE
:1007E000BBFDFFE7FFE7079840F2A001C2F200015E
:1007F000016207984862FFE7FFE708B080BD00008C
:1008000080B58EB00D900D98C06B00680C900D985F
:10081000006800680B900C980D99096CC84040075F
:10082000002875D5FFE79DF82C00400700286FD5FC
:10083000FFE70D98006800688006002807D4FFE7EE
:100840000D980168086820F004000860FFE70D9823
:1008500000680821C4F20201884203D1FFE70420A6
:100860000A9047E00D9800681C21C4F202018842FA
:1008700003D1FFE74020099039E00D98006830214E
:10088000C4F20201884204D1FFE74FF4806008906F
:100890002AE00D9800684421C4F20201884204D184
:1008A000FFE74FF4804007901BE00D980068582147
:1008B000C4F20201884204D1FFE74FF48020069081
:1008C0000CE00D9801686C22C4F202024FF08060C7
:1008D000914208BF4FF480000690FFE7069807900A
:1008E000FFE707980890FFE708980990FFE7099845
:1008F0000A90FFE70A980421C4F2020108600D98EB
:10090000C06A20B1FFE70D98C16A8847FFE7B8E0E9
:100910000C980D99096CC8408007002840F1808030
:10092000FFE79DF82C008007002879D5FFE70D9898
:1009300000680068800600280BD4FFE70D98016866
:10094000086820F00A0008600D99012081F8210054
:10095000FFE70D9800680821C4F20201884203D124
:10096000FFE70220059047E00D9800681C21C4F2C3
:100970000201884203D1FFE72020049039E00D985E
:1009800000683021C4F20201884204D1FFE74FF42D
:10099000007003902AE00D9800684421C4F202011F
:1009A000884204D1FFE74FF4005002901BE00D98FD
:1009B00000685821C4F20201884204D1FFE74FF4D5
:1009C000003001900CE00D9801686C22C4F2020224
:1009D0004FF00070914208BF4FF400100190FFE704
:1009E00001980290FFE702980390FFE703980490B4
:1009F000FFE704980590FFE705980421C4F202017F
:100A00000860FFE70D99002081F82000FFE70D98AE
:100A1000806A20B1FFE70D98816A8847FFE72FE0E1
:100A20000C980D99096CC8400007002827D5FFE7EE
:100A30009DF82C000007002821D5FFE70D980168DC
:100A4000086820F00E0008600D98C26B016C012050
:100A500000FA01F151600D9988630D9981F8210028
:100A6000FFE70D99002081F82000FFE70D98006B4B
:100A700020B1FFE70D98016B8847FFE7FFE7FFE72D
:100A8000FFE70EB080BD000083B001900020009011
:100A9000019820B9FFE701208DF80B0047E001998C
:100AA00008684FF6F872CBF6FD7210444CF6CD4252
:100AB000CCF6CC42A0FB02026FF0030000EA9200E9
:100AC000086401990020C4F20200C8630199022061
:100AD00081F821000198006800680090009843F6B2
:100AE000F0718843009001994868D1F808C0CB683C
:100AF0000A6940EA0C00184310434A6910438A69A6
:100B00001043C96901430098084300900098019977
:100B100009680860019900208863019A012182F820
:100B20002110019981F820008DF80B00FFE79DF856
:100B30000B0003B07047000090B00F900E910020A2
:100B40000D900990FFE70E9800680D99C8400028A5
:100B500000F07F81FFE70D99012088400C900E98EE
:100B600000680C9908400B900B980C99884240F053
:100B70006C81FFE70E9840680590002851D0FFE790
:100B8000059801283AD0FFE7059802283FD0FFE7F3
:100B9000059803285FD0FFE70598112832D0FFE7BA
:100BA0000598122838D0FFE705980021C1F21101FD
:100BB000884236D0FFE705980021C1F21201884231
:100BC0002FD0FFE705980021C1F22101884228D0EB
:100BD000FFE705980021C1F22201884221D0FFE7FA
:100BE00005980021C1F2310188421AD0FFE705982B
:100BF0000021C1F23201884213D02FE00E98C06864
:100C000009902CE00E98C0680430099027E00E98F7
:100C1000C0680830099022E00E98C0680C30099036
:100C20001DE00E98806818B9FFE70420099011E0D4
:100C30000E988068012806D1FFE7082009900C98DB
:100C40000F99086105E0082009900C980F994861F8
:100C5000FFE7FFE703E00020099000E0FFE70B98C3
:100C6000FF2803D8FFE70F98049003E00F980430A3
:100C70000490FFE7049808900B98FF2804D8FFE73A
:100C80000D988000039006E00D996FF01F0000EBB7
:100C900081000390FFE70398079008980068079A7F
:100CA0000F219140884309999140084308990860B1
:100CB0000E98C079C006002840F1C680FFE7FFE724
:100CC00041F21800C4F20200016841F00101016024
:100CD000006800F0010006900698FFE70D9820F0EC
:100CE00003000821C4F2010140580A900D9800F059
:100CF000030081000F2000FA01F10A9888430A904E
:100D00000F9840F60001C4F20101884203D1FFE7C9
:100D10000020029026E00F9840F60041C4F2010145
:100D2000884203D1FFE70120019018E00F9841F2BB
:100D30000001C4F20101884203D1FFE702200090C4
:100D40000AE00F9941F20042C4F2010204209142EC
:100D500008BF03200090FFE700980190FFE701988B
:100D60000290FFE702980D9901F00301890000FA53
:100D700001F10A9808430A900A980D9921F003019D
:100D80000822C4F2010288500E988079C00600281B
:100D900009D5FFE70B9A40F20841C4F20101086847
:100DA0001043086008E00B9A40F20841C4F20101C8
:100DB000086890430860FFE70E9880798006002855
:100DC00009D5FFE70B9A40F20C41C4F20101086813
:100DD0001043086008E00B9A40F20C41C4F2010194
:100DE000086890430860FFE70E9880798007002824
:100DF00009D5FFE70B9A40F20441C4F201010868EB
:100E00001043086008E00B9A40F20441C4F201016B
:100E1000086890430860FFE70E988079C00748B1E2
:100E2000FFE70B9A40F20041C4F201010868104349
:100E3000086008E00B9A40F20041C4F20101086822
:100E400090430860FFE7FFE7FFE70D9801300D9042
:100E500079E610B07047000082B00190ADF8021042
:100E60008DF801209DF8010028B1FFE7BDF80200D0
:100E70000199086105E0BDF80200000401990861CC
:100E8000FFE702B07047000040F27410C2F20000A9
:100E90000068704740F20400C2F20000027840F29D
:100EA0007411C2F200010868104408607047000025
:100EB00080B542F20001C4F20201086840F010005F
:100EC0000860032000F096F80F2000F005F800F00D
:100ED0003BF8002080BD000080B582B0009040F259
:100EE0000000C2F20000006840F20401C2F20001FA
:100EF0000A784FF47A71B1FBF2F1B0FBF1F000F037
:100F000057FE20B1FFE701208DF8070018E0009898
:100F10000F280DD8FFE700994FF0FF30002200F0B6
:100F20004FF8009840F20801C2F20001086003E0A7
:100F300001208DF8070003E000208DF80700FFE78F
:100F40009DF8070002B080BD83B0FFE741F21800B2
:100F5000C4F20200016841F001010160006800F084
:100F6000010002900298FFE7FFE741F21C00C4F283
:100F70000200016841F080510160006800F080507B
:100F800001900198FFE7FFE70421C4F2010108681E
:100F90000090009820F0E0600090009840F0007011
:100FA000009000980860FFE703B0704780B582B0FA
:100FB0008DF807009DF9070001F0FCFB02B080BD31
:100FC00080B586B08DF8170004910392002002903E
:100FD00001F008FC02909DF9170001900298049915
:100FE000039A01F09BF90146019801F003FC06B059
:100FF00080BD000080B582B00190019801F01CFC1A
:1010000002B080BD80B586B00490002003900290AD
:1010100004980078C007002800F0AC80FFE70020AB
:101020008DF8070041F21C00C4F202000068C00005
:10103000002813D4FFE7FFE741F21C00C4F20200CE
:10104000016841F080510160006800F0805000901C
:101050000098FFE701208DF80700FFE747F2000046
:10106000C4F200000068C005002822D4FFE747F260
:101070000001C4F20001086840F480700860FFF7C6
:1010800003FF0390FFE747F20000C4F2000000688E
:10109000C00500280CD4FFE7FFF7F6FE0399401ABD
:1010A000652804D3FFE703208DF817008AE0EAE7FC
:1010B000FFE741F22000C4F20200006800F4407033
:1010C00002900298E0B3FFE702980499496801F49E
:1010D0004071884234D0FFE741F22001C4F202019E
:1010E000086820F44070029040F24042C4F242226C
:1010F0000120106000201060029808609DF8080030
:10110000C007E0B1FFE7FFF7BFFE0390FFE741F242
:101110002000C4F202000068800700280ED4FFE718
:10112000FFF7B2FE0399401A41F28931884204D395
:10113000FFE703208DF8170044E0E8E7FFE7FFE74B
:1011400041F22001C4F20201086820F44070049AC0
:101150005268104308609DF80700012809D1FFE795
:1011600041F21C01C4F20201086820F080500860BE
:10117000FFE7FFE704980078800700280CD5FFE719
:1011800041F20401C4F20201086820F44040049ACC
:10119000926810430860FFE704980078C0060028B2
:1011A0000CD5FFE741F20401C4F20201086820F403
:1011B0008000049AD26810430860FFE700208DF891
:1011C0001700FFE79DF8170006B080BD80B584B01A
:1011D00002900191029820B9FFE701208DF80F00DD
:1011E0001BE1019842F20001C4F20201096801F01A
:1011F0000701884216D9FFE742F20000C4F202005C
:10120000016821F00701019A11430160006800F0B4
:1012100007000199884204D0FFE701208DF80F00F4
:10122000FBE0FFE702980078800700282AD5FFE757
:10123000029800784007002809D5FFE741F2040131
:10124000C4F20201086840F4E0600860FFE7029819
:1012500000780007002809D5FFE741F20401C4F235
:101260000201086840F460500860FFE741F20401A1
:10127000C4F20201086820F0F000029A926810435C
:101280000860FFE702980078C007002860D0FFE7F9
:101290000298406801280ED1FFE741F20000C4F235
:1012A000020000688003002804D4FFE701208DF8C5
:1012B0000F00B2E021E00298406802280ED1FFE75B
:1012C00041F20000C4F2020000688001002804D44A
:1012D000FFE701208DF80F009FE00DE041F20000D4
:1012E000C4F2020000688007002804D4FFE7012050
:1012F0008DF80F0091E0FFE7FFE741F20401C4F22F
:101300000201086820F00300029A52681043086046
:10131000FFF7BAFD0090FFE741F20400C4F20200BB
:10132000006800F00C0002994968B0EB810F0ED004
:10133000FFE7FFF7A9FD0099401A41F28931884281
:1013400004D3FFE703208DF80F0066E0E4E7FFE732
:10135000019842F20001C4F20201096801F007019C
:10136000884216D2FFE742F20000C4F20200016890
:1013700021F00701019A11430160006800F00700A5
:101380000199884204D0FFE701208DF80F0044E066
:10139000FFE702980078400700280CD5FFE741F2EC
:1013A0000401C4F20201086820F4E060029AD268E5
:1013B00010430860FFE702980078000700280DD569
:1013C000FFE741F20401C4F20201086820F4605012
:1013D000029A126940EAC2000860FFE700F04CF888
:1013E00041F20401C4F202010968C9B20A0942F6D5
:1013F0009C01C0F60001895CC84040F20001C2F2C5
:101400000001086040F20800C2F200000068FFF727
:1014100063FD00208DF80F00FFE79DF80F0004B07A
:1014200080BD000040F20000C2F20000006870477A
:1014300080B5FFF7F7FF41F20401C4F20201096829
:10144000C1F3022242F6AC01C0F60001895CC8403B
:1014500080BD000080B5FFF7E5FF41F20401C4F252
:1014600002010968C1F3C22242F6AC01C0F60001D4
:10147000895CC84080BD000086B0002005900490C3
:1014800003900290019041F20400C4F2020000684F
:101490000590059800F00C000146009100283FD00F
:1014A000FFE70098042804D0FFE70098082806D03A
:1014B00037E041F20020C0F27A00019037E0059851
:1014C000C0F3834142F6B400C0F60000405C0290D5
:1014D0009DF81600C007C0B1FFE741F20400C4F256
:1014E00002000068C0F3404142F6C400C0F60000AC
:1014F000405C0490029841F20021C0F27A01484316
:101500000499B0FBF1F0039007E0029840F6001157
:10151000C0F23D0148430390FFE70398019006E0C5
:10152000FFE741F20020C0F27A000190FFE7019846
:1015300006B0704780B586B00490049820B9FFE7E4
:1015400001208DF817002EE304980078C0070028CA
:1015500000F0AE80FFE741F20400C4F20200006830
:1015600000F00C00042813D0FFE741F20400C4F29D
:101570000200006800F00C0008281BD1FFE741F2D0
:101580000400C4F202000068C003002812D5FFE77F
:1015900041F20000C4F2020000688003002808D570
:1015A000FFE70498406820B9FFE701208DF8170095
:1015B000F9E27CE0FFE704984068B0F5803F09D18C
:1015C000FFE741F20001C4F20201086840F48030F4
:1015D000086032E00498406868B9FFE741F2000112
:1015E000C4F20201086820F480300860086820F422
:1015F0008020086020E004984068B0F5A02F0DD14D
:10160000FFE741F20001C4F20201086840F48020C3
:101610000860086840F4803008600CE041F2000186
:10162000C4F20201086820F480300860086820F4E1
:1016300080200860FFE7FFE7FFE7FFE704984068C6
:10164000D0B1FFE7FFF720FC0390FFE741F2000075
:10165000C4F202000068800300280CD4FFE7FFF703
:1016600013FC0399401A652804D3FFE703208DF883
:10167000170098E2EAE719E0FFF706FC0390FFE79E
:1016800041F20000C4F202000068800300280CD57B
:10169000FFE7FFF7F9FB0399401A652804D3FFE73A
:1016A00003208DF817007EE2EAE7FFE7FFE7FFE798
:1016B000049800788007002840F18D80FFE741F210
:1016C0000400C4F20200006810F00C0F13D0FFE712
:1016D00041F20400C4F20200006800F00C00082887
:1016E00029D1FFE741F20400C4F202000068C00300
:1016F000002820D4FFE741F20000C4F20200006895
:101700008007002809D5FFE704980069012804D064
:10171000FFE701208DF8170045E241F20001C4F215
:101720000201086820F0F800049A526940EAC200F9
:101730000860FFE74EE00498006958B3FFE7002116
:10174000C4F2422101200860FFF79EFB0390FFE7EF
:1017500041F20000C4F202000068800700280CD4A7
:10176000FFE7FFF791FB0399401A032804D3FFE733
:1017700003208DF8170016E2EAE741F20001C4F2F7
:101780000201086820F0F800049A526940EAC20099
:1017900008601EE00021C4F2422100200860FFF72B
:1017A00073FB0390FFE741F20000C4F202000068FF
:1017B000800700280CD5FFE7FFF766FB0399401A66
:1017C000032804D3FFE703208DF81700EBE1EAE7D5
:1017D000FFE7FFE7FFE7049800780007002848D5F7
:1017E000FFE70498806918B3FFE740F28041C4F234
:1017F000422101200860FFF747FB0390FFE741F219
:101800002400C4F202000068800700280CD4FFE71F
:10181000FFF73AFB0399401A032804D3FFE703209C
:101820008DF81700BFE1EAE7012000F0AFFD1FE0EF
:1018300040F28041C4F2422100200860FFF724FBFF
:101840000390FFE741F22400C4F202000068800721
:1018500000280CD5FFE7FFF717FB0399401A032870
:1018600004D3FFE703208DF817009CE1EAE7FFE7C8
:10187000FFE7049800784007002840F1D880FFE790
:1018800000208DF8070041F21C00C4F2020000683D
:10189000C000002813D4FFE7FFE741F21C00C4F2A8
:1018A0000200016841F080510160006800F0805042
:1018B00000900098FFE701208DF80700FFE747F24E
:1018C0000000C4F200000068C005002822D4FFE731
:1018D00047F20001C4F20001086840F4807008601B
:1018E000FFF7D2FA0390FFE747F20000C4F20000CE
:1018F0000068C00500280CD4FFE7FFF7C5FA03997C
:10190000401A652804D3FFE703208DF817004AE149
:10191000EAE7FFE7FFE70498C068012809D1FFE77D
:1019200041F22001C4F20201086840F001000860A1
:1019300031E00498C06868B9FFE741F22001C4F2C1
:101940000201086820F001000860086820F0040027
:1019500008601FE00498C06805280DD1FFE741F238
:101960002001C4F20201086840F004000860086821
:1019700040F0010008600CE041F22001C4F20201D5
:10198000086820F001000860086820F00400086082
:10199000FFE7FFE7FFE7FFE70498C068E0B1FFE774
:1019A000FFF772FA0390FFE741F22000C4F2020051
:1019B0000068800700280ED4FFE7FFF765FA039957
:1019C000401A41F28931884204D3FFE703208DF8A1
:1019D0001700E8E0E8E71BE0FFF756FA0390FFE79F
:1019E00041F22000C4F202000068800700280ED5F2
:1019F000FFE7FFF749FA0399401A41F2893188421B
:101A000004D3FFE703208DF81700CCE0E8E7FFE7F9
:101A10009DF80700012809D1FFE741F21C01C4F23B
:101A20000201086820F080500860FFE7FFE7049893
:101A3000C069002800F0B380FFE741F20400C4F25F
:101A40000200006800F00C00082800F08280FFE728
:101A50000498C06902285CD1FFE76021C4F24221EA
:101A600000200860FFF710FA0390FFE741F2000042
:101A7000C4F202000068800100280CD5FFE7FFF7E0
:101A800003FA0399401A032804D3FFE703208DF8D3
:101A9000170088E0EAE70498006AB0F5803F0CD1AF
:101AA000FFE741F20401C4F20201086820F40030AB
:101AB000049A926810430860FFE741F20401C4F2FF
:101AC0000201086820F47410049B1A6A5B6A1A43C6
:101AD000104308606021C4F2422101200860FFF732
:101AE000D3F90390FFE741F20000C4F2020000685E
:101AF000800100280CD4FFE7FFF7C6F90399401ACC
:101B0000032804D3FFE703208DF817004BE0EAE732
:101B10001EE06021C4F2422100200860FFF7B4F902
:101B20000390FFE741F20000C4F202000068800168
:101B300000280CD5FFE7FFF7A7F90399401A0328FF
:101B400004D3FFE703208DF817002CE0EAE7FFE756
:101B500024E00498C069012804D1FFE701208DF832
:101B6000170020E041F20400C4F202000068029075
:101B7000029800F480300499096A884208D1FFE78E
:101B8000029800F470100499496A884204D0FFE773
:101B900001208DF8170006E0FFE7FFE7FFE70020D0
:101BA0008DF81700FFE79DF8170006B080BD000014
:101BB00080B582B00190019800F008FC02B080BDB1
:101BC00085B003900291FFE7039890F83C0001284C
:101BD00004D1FFE702208DF813005BE00399012098
:101BE00081F83C00FFE7FFE70399022081F83D0000
:101BF000039800684068019003980068806800902E
:101C0000019820F070000190029801680198084343
:101C1000019001980399096848600398006842F6AA
:101C20000041C4F20101884218D0FFE70398006820
:101C3000B0F1804F12D0FFE70398006840F20041F6
:101C4000C4F20001884209D0FFE70398006840F61B
:101C50000001C4F2000188420ED1FFE7009820F095
:101C60008000009002984168009808430090009816
:101C7000039909688860FFE70399012081F83D0016
:101C8000FFE70399002081F83C00FFE700208DF872
:101C90001300FFE79DF8130005B0704780B582B0D0
:101CA0000090009820B9FFE701208DF807003FE081
:101CB000009890F83D0040B9FFE70099002081F8B6
:101CC0003C00009800F038F8FFE70099022081F806
:101CD0003D00009951F8040B00F0F0FB0099012041
:101CE00081F84600FFE70099012081F83E00009945
:101CF00081F83F00009981F84000009981F8410087
:101D0000FFE7FFE70099012081F84200009981F880
:101D10004300009981F84400009981F84500FFE7ED
:101D20000099012081F83D0000208DF80700FFE7B1
:101D30009DF8070002B080BD82B001900198006854
:101D400040F20041C4F20001884210D1FFE7FFE7F2
:101D500041F21C00C4F20200016841F0020101607E
:101D6000006800F0020000900098FFE7FFE702B073
:101D70007047000080B586B00490039100208DF874
:101D80000B00FFE7049890F83C00012804D1FFE71E
:101D900002208DF81700ABE00499012081F83C0087
:101DA000FFE7FFE70499022081F83D0004980068EE
:101DB00080680190019820F077000190019820F44C
:101DC0007F40019001980499096888600398006831
:101DD0000090002872D0FFE7009810286ED0FFE72F
:101DE000009820286AD0FFE70098302866D0FFE7E7
:101DF0000098402855D0FFE70098502837D0FFE7DB
:101E00000098602840D0FFE7009870280BD0FFE7CB
:101E10000098B0F5805F05D0FFE70098B0F5005F4F
:101E200016D052E055E004980068039B5A68996800
:101E3000DB6800F0C1FB049800688068019001989D
:101E400040F077000190019804990968886040E0AB
:101E500004980068039B5A689968DB6800F0ACFB43
:101E600004980168886840F48040886031E00498F4
:101E70000068039A5168D26800F0CEFB04980068AD
:101E8000502100F0B3FB24E004980068039A5168E5
:101E9000D26800F0F7FB04980068602100F0A6FB10
:101EA00017E004980068039A5168D26800F0B4FB08
:101EB00004980068402100F099FB0AE0049800684B
:101EC0000399096800F092FB03E001208DF80B00F4
:101ED000FFE70499012081F83D00FFE70499002005
:101EE00081F83C00FFE79DF80B008DF81700FFE735
:101EF0009DF8170006B080BD80B582B000900098B4
:101F000020B9FFE701208DF8070040E000988069C4
:101F100008B1FFE700E0FFE7009890F8410040B902
:101F2000FFE70099002081F84000009800F034F8A5
:101F3000FFE70099242081F8410000980168C868F3
:101F400020F40050C860009800F0D4FB00980168AD
:101F5000086920F49040086100980168486920F001
:101F60002A00486100980168C86840F40050C860C1
:101F7000009900204864009A202182F84110009ABC
:101F800082F84210009948638DF80700FFE79DF83A
:101F9000070002B080BD000080B58AB00990002023
:101FA00008900790069005900998006843F6000194
:101FB000C4F20101884239D1FFE7FFE741F218007E
:101FC000C4F20200016841F480410160006800F43D
:101FD000804004900498FFE7FFE741F21800C4F244
:101FE0000200016841F004010160006800F0040093
:101FF00003900398FFE74FF40070059002200690CD
:102000000320089040F60000C4F20100019005A9E9
:102010000291FEF791FD019802994FF480620592BA
:10202000002206920792FEF787FDFFE70AB080BD07
:10203000FFE7FEE780B584B0002103910291019192
:1020400040F27000C2F20000009042F20042C4F27E
:10205000010202608160017301754FF40022C261C8
:10206000416001210161FEF759FA18B1FFE7FEF75F
:1020700073F9FFE7002001900120029007200390F0
:1020800040F27000C2F2000001A9FEF76DF918B12C
:10209000FFE7FEF761F9FFE704B080BD80B582B0CD
:1020A000FFE741F21400C4F20200016841F00101AF
:1020B0000160006800F0010001900198FFE70B202B
:1020C000009000221146FEF77BFF0098FEF76EFF9E
:1020D00002B080BD80B594B0002013901290119092
:1020E0001090FFE741F21800C4F20200016841F0CD
:1020F00010010160006800F010000F900F98FFE7DA
:10210000FFE741F21800C4F20200016841F020012B
:102110000160006800F020000E900E98FFE7FFE7D6
:1021200041F21800C4F20200016841F004010160AC
:10213000006800F004000D900D98FFE7FFE741F202
:102140001800C4F20200016841F008010160006853
:1021500000F008000C900C98FFE741F20000C4F278
:10216000010002904FF46041019100220792FEF7B6
:1021700073FE079A40F60040C4F20100049041F259
:1021800038010591FEF768FE079A40F60000C4F298
:10219000010009904FF400410B91FEF75DFE019A9A
:1021A000029807991092012206921192129102212F
:1021B0000891139110A90A91FEF7BEFC09980A999B
:1021C00041F6FA121092032203921192FEF7B4FC28
:1021D000079A09980A990423109311921292FEF714
:1021E000ABFC0498069B079A0A99109311921292DD
:1021F000FEF7A2FC039A04980A994EF6C673109350
:102200001192FEF799FC0498DDF818C0079B089A14
:102210000A99DDF814E0CDF840E0CDF844C01293FF
:102220001392FEF789FCDDF818C0079B089A0998FD
:102230000A99DDF82CE0CDF840E0CDF844C01293C7
:102240001392FEF779FC14B080BD000080B588B011
:10225000002101910791069105910491039102914A
:1022600040F2E400C2F2000040F20042C4F2000278
:10227000026041F61F42426081606322C2600161D8
:102280008161FFF70BFD18B1FFE7FEF765F8FFE787
:102290004FF48050049040F2E400C2F2000004A920
:1022A000FFF768FD18B1FFE7FEF756F8FFE72020BB
:1022B00002900020039040F2E400C2F2000002A964
:1022C000FFF77EFC18B1FFE7FEF746F8FFE708B01E
:1022D00080BD000080B582B040F22C10C2F2000038
:1022E000019043F60001C4F2010101604FF4E131B5
:1022F000416000218160C16001610C224261816105
:10230000C161FFF7F9FD18B1FFE7FEF725F8FFE718
:1023100002B080BDFFE7FEE7FFE7FEE788B0079069
:1023200006910592079800F0070004900498C0F108
:102330000700052803D3FFE70420019004E0049878
:10234000C0F107000190FFE7019803900498043062
:10235000062803D8FFE70020009003E00498033824
:102360000090FFE70098029006980399012202FA74
:1023700001F101390840029B984005999A40013AC1
:102380001140084308B070477047000082B00190C8
:10239000019840F20001C2F200010968C90844F640
:1023A000D352C1F26202A1FB022189094843009085
:1023B000FFE700BFFFE70098411E00910028F8D119
:1023C000FFE702B0704700007047000080B582B0A0
:1023D000009000980138B0F1807F03D3FFE701201F
:1023E000019019E0009801384EF21401CEF200017C
:1023F00008604FF0FF300F2100F0FCF94EF2180199
:10240000CEF20001002008604EF21002CEF200026F
:10241000072111600190FFE7019802B080BD000024
:1024200080B5FEF737FD80BD80B596B00CA8019051
:102430002821FDF7DFFE0198002302930B930A93F6
:10244000099308930793069305930493039301223A
:102450000C924FF480310D910E9310920222139240
:1024600014914FF4E0111591FFF764F818B1FFE7EC
:10247000FDF772FFFFE70F2007900221089100206F
:1024800009904FF480620A920B9007A8FEF79EFE17
:1024900018B1FFE7FDF760FFFFE7022003904FF45C
:1024A0000040059003A8FEF7ADFD18B1FFE7FDF76A
:1024B00053FFFFE716B080BD7047000083B0029065
:1024C0000191029800680090029842F60041C4F21F
:1024D0000101884215D0FFE70298B0F1804F10D07B
:1024E000FFE7029840F20041C4F20001884208D0A0
:1024F000FFE7029840F60001C4F2000188420AD1C9
:10250000FFE7009820F07000009001984168009863
:1025100008430090FFE7029842F60041C4F201012F
:10252000884215D0FFE70298B0F1804F10D0FFE746
:10253000029840F20041C4F20001884208D0FFE74F
:10254000029840F60001C4F2000188420AD1FFE778
:10255000009820F4407000900198C16800980843EA
:102560000090FFE7009820F0800001994969084336
:102570000090019880680299C862019800680299E9
:102580008862029842F60041C4F20101884205D1F6
:10259000FFE70198006902990863FFE7029908685C
:1025A00040F00400086002990120486100980299F7
:1025B000086003B07047000085B004900391029258
:1025C0000193049880680090009820F47F40009068
:1025D00003980299019A41EA0221014300980843B5
:1025E000009000980499886005B0704783B002900D
:1025F0000191029880680090009820F0700000908F
:1026000001980099084340F0070000900098029953
:10261000886003B07047000085B004900391029277
:102620000498006A00900499086A20F0010008628A
:10263000049842F60041C4F20101884206D1FFE746
:102640000499086A20F004000862FFE70498806992
:102650000190019820F0F00001900299019840EA61
:1026600001100190009820F00A0000900399009852
:1026700008430090019804998861009804990862C1
:1026800005B0704785B00490039102920498006AE7
:1026900000900499086A20F010000862049842F63D
:1026A0000041C4F20101884206D1FFE70499086A9B
:1026B00020F040000862FFE70498806901900198CB
:1026C00020F4704001900299019840EA0130019095
:1026D000009820F0A00000900399009840EA0110B3
:1026E000009001980499886100980499086205B0E7
:1026F0007047000080B584B00390039800680069BB
:1027000020F44050039A1168D2681043086103997D
:1027100088680A6949691043084302900398006871
:10272000C06841F20C618843029908430399096823
:10273000C86003980068406920F44070039A1168EB
:102740009269104348610398006843F60001C4F29F
:102750000101884204D1FFE7FEF77CFE019003E00F
:10276000FEF766FE0190FFE7019819214843039A9E
:10277000116852689200B0FBF2FC48F21F52C5F299
:10278000EB12ACFB02304309642003FB10CC322077
:1027900000EB0C10A0FB0202F02000EA521000EB4C
:1027A0000310C2F343121044886004B080BD0000DF
:1027B000FFE7FEE781B08DF803009DF903000028D4
:1027C0000ED4FFE79DF9031001F01F020120904095
:1027D0004A094EF20011CEF2000141F82200FFE753
:1027E00001B070474EF60C50CEF200000068C0F306
:1027F0000220704782B08DF8070000919DF9070014
:1028000000280AD4FFE7009800019DF907104EF256
:102810000042CEF2000288540BE0009800019DF8BF
:10282000071001F00F014EF61452CEF20002885448
:10283000FFE702B07047000083B00290029800F0FA
:10284000070000904EF60C51CEF20001086801908E
:1028500001984FF6FF02104001900198009A40EA5B
:1028600002200022C0F2FA52104301900198086041
:1028700003B0704780B582B000200190FEF718FBCE
:10288000FFF7D2FDFFF726FCFFF708FCFFF7D2FBAE
:10289000FFF7DCFCFFF71EFDFFE7FEE7000000008E
:1028A0000000000001020304060708090000000000
:1028B0000102030402030405060708090A0B0C0DB4
:1028C0000E0F101001020000E82800080000002090
:1028D0001000000050010008F82800081000002037
:1028E000680B00007001000800127A00010000006F
:0828F0001000000000000000D0
:04000005080000ED02
:00000001FF
