:020000040800F2
:10000000000C0020B5010008412E0008212B00083B
:100010003D2E0008B9040008DD3200080000000091
:10002000000000000000000000000000F12E0008A9
:100030001D05000800000000B12E0008492F00082F
:10004000CF010008CF010008CF010008CF01000850
:10005000CF010008CF010008CF010008CF01000840
:10006000CF010008CF010008CF010008BD0400083F
:10007000CF010008CF010008CF010008CF01000820
:10008000CF010008CF010008CF010008CF01000810
:10009000CF010008CF010008CF010008CF01000800
:1000A000CF010008CF010008CF010008CF010008F0
:1000B000CF010008CF010008CF010008CF010008E0
:1000C000CF010008CF010008CF010008CF010008D0
:1000D000CF010008CF010008CF010008CF010008C0
:1000E000CF010008CF010008CF01000800F002F89E
:1000F00000F050F814A696E8000CB244B344DA4578
:1001000001D100F047F8BAE80F000FA696E83000DA
:10011000A5EB040504EB0607AAEB0704A7F101070A
:100120004FEA15154FEA3414A4F10104AC4201D38F
:1001300000F030F813F0010F18BFFB1A43F0010371
:1001400000F001F8DBE71847343D0000543D0000A3
:10015000103A24BF78C878C1FAD8520724BF30C8F3
:1001600030C144BF04680C60704700007047000055
:100170000023002400250026103A28BF78C1FBD8B0
:10018000520728BF30C148BF0B6070471FB51FBD65
:1001900010B510BD00F058F81146FFF7F7FF03F057
:1001A00037FA00F076F803B4FFF7F2FF03BC00F073
:1001B0007DF800000948804709480047FEE7FEE750
:1001C000FEE7FEE7FEE7FEE7FEE7FEE7FEE7FEE707
:1001D00004480549054A064B70470000E52F000812
:1001E000ED00000800020020000C002000040020A8
:1001F000000400204FF0000200B5134694469646D6
:10020000203922BFA0E80C50A0E80C50B1F1200129
:10021000BFF4F7AF090728BFA0E80C5048BF0CC0D7
:100220005DF804EB890028BF40F8042B08BF704735
:1002300048BF20F8022B11F0804F18BF00F8012BA7
:100240007047704770477047754600F02BF8AE4610
:1002500005006946534620F00700854618B020B5D2
:10026000FFF7B6FFBDE820404FF000064FF0000753
:100270004FF000084FF0000BAC46ACE8C009ACE80A
:10028000C009ACE8C009ACE8C00921F007018D46FF
:10029000704710B50446AFF300802046BDE810401B
:1002A000FFF781BF00487047100000200149182067
:1002B000ABBEFEE7260002007047000080B584B0A8
:1002C000029000200190029800688068C00770B317
:1002D000FFE702980168886820F00100886001F05B
:1002E000DBF90190FFE7029800688068C007E8B179
:1002F000FFE701F0D1F90199401A032815D3FFE770
:10030000029800688068C00770B1FFE70299886AA8
:1003100040F0100088620299C86A40F00100C8628B
:1003200001208DF80F0006E0FFE7DCE7FFE7002083
:100330008DF80F00FFE79DF80F0004B080BD0000AE
:1003400080B582B001900198406A00900098806A60
:1003500010F0500F28D1FFE70099886A40F4007030
:10036000886200980068806800F46020B0F5602F13
:1003700016D1FFE70098007B90B9FFE70099886AE3
:1003800020F4807088620098806AC004002806D437
:10039000FFE70099886A40F001008862FFE7FFE705
:1003A000009800F065FA05E00098006A016B01987A
:1003B0008847FFE702B080BD80B582B00190019808
:1003C000406A00900099886A40F040008862009975
:1003D000C86A40F00400C862009800F07BFA02B0DE
:1003E00080BD000080B582B001900198406A009005
:1003F000009800F06BFA02B080BD000080B584B0B8
:100400000290002001900090029800688068C00768
:10041000002849D1FFE702980168886840F0010090
:10042000886040F20000C2F2000000684DF683616F
:10043000C4F21B31A0FB0110800C0090FFE7009874
:1004400020B1FFE7009801380090F8E701F024F9A7
:100450000190FFE7029800688068C00718BBFFE7BB
:1004600001F01AF90199401A03281BD3FFE70298FB
:1004700000688068C007A0B9FFE70299886A40F069
:10048000100088620299C86A40F00100C862FFE764
:100490000299002081F82400FFE701208DF80F0069
:1004A00006E0FFE7D6E7FFE700208DF80F00FFE743
:1004B0009DF80F0004B080BDFFE7FEE780B540F275
:1004C000A400C2F2000000F025FD80BD84B00390BE
:1004D0000291019200930398C16B026C012090403D
:1004E000486000980399096848600398406810289C
:1004F00009D1FFE701980399096888600298039978
:100500000968C86008E00298039909688860019842
:1005100003990968C860FFE704B07047704700009E
:1005200081B0EFF3108072B60090FFE7FEE70000A5
:1005300080B586B0049000208DF80F000190FFE791
:10054000049890F82400012804D1FFE702208DF8D8
:100550001700AEE00499012081F82400FFE7FFE7CF
:100560000498FFF7ABFE8DF80F000498FFF746FFE5
:100570008DF80F009DF80F00002840F08F80FFE7F6
:100580000498806A40F0020020F488500499886240
:1005900040F20000C2F2000000680090022001F06A
:1005A0008BF901460098B0FBF1F040000190FFE7A5
:1005B000019820B1FFE7019801380190F8E704980D
:1005C0000168886840F00800886001F065F80290D2
:1005D000FFE70498006880680007002822D5FFE73D
:1005E00001F05AF80299401A0B281AD3FFE7049831
:1005F000006880680007002812D5FFE70498806A29
:1006000040F0100020F0020004998862FFE704998E
:10061000002081F82400FFE701208DF8170048E052
:10062000FFE7D6E704980168886840F00400886016
:1006300001F032F80290FFE70498006880684007F4
:10064000002822D5FFE701F027F80299401A0B286D
:100650001AD3FFE70498006880684007002812D585
:10066000FFE70498806A40F0100020F0020004992F
:100670008862FFE70499002081F82400FFE7012049
:100680008DF8170015E0FFE7D6E70498806A40F080
:10069000010020F0020004998862FFE7FFE7049957
:1006A000002081F82400FFE79DF80F008DF8170067
:1006B000FFE79DF8170006B080BD000085B00390ED
:1006C000029100208DF807000090FFE7039890F852
:1006D0002400012804D1FFE702208DF81300C3E0B5
:1006E0000399012081F82400FFE7FFE702984068A2
:1006F000062812D8FFE703980068406B029A116839
:10070000526802EB8202053A1F23934098439140BE
:10071000084303990968486329E0029840680C2857
:1007200012D8FFE703980068006B029A11685268BC
:1007300002EB8202233A1F239340984391400843DF
:1007400003990968086311E003980068C06A029A77
:100750001168526802EB8202413A1F23934098438A
:100760009140084303990968C862FFE7FFE70298D0
:1007700000680A2812D3FFE703980068C06802994E
:100780000A68896802EB42021E3A072393409843A5
:100790009140084303990968C86010E00398006815
:1007A000006902990A68896802EB420207239340B4
:1007B000984391400843039909680861FFE702984C
:1007C0000068102805D0FFE702980068112840D182
:1007D000FFE70398006842F20041C4F20101884239
:1007E0002DD1FFE70398006880680002002825D417
:1007F000FFE703980168886840F400008860029869
:100800000068102819D1FFE740F20000C2F2000092
:1008100000684DF68361C4F21B31A0FB0110800C0F
:1008200000EB800040000090FFE7009820B1FFE758
:10083000009801380090F8E7FFE7FFE708E0039928
:10084000886A40F02000886201208DF80700FFE7E9
:10085000FFE7FFE70399002081F82400FFE79DF8F8
:1008600007008DF81300FFE79DF8130005B07047EF
:1008700082B001900198006842F20041C4F2010187
:10088000884201D0FFE71FE000200090FFE70098BA
:100890000F2812D8FFE7009A40F29210C2F200002F
:1008A00030F8120040F2BE11C2F2000121F812002D
:1008B000FFE7009801300090E9E740F29111C2F2A1
:1008C000000101200870FFE702B0704781B000907E
:1008D00001B0704781B0009001B0704780B588B01A
:1008E000069000208DF8170004900390029006985F
:1008F00020B9FFE701208DF81F00F4E0069880681A
:1009000030B1FFE70698007D08B1FFE7FFE7FFE79A
:100910000698806A50B9FFE706990020C8620699D8
:1009200081F82400069800F0E3F8FFE70698FFF747
:10093000C5FC8DF817000698806AC006002800F1F3
:10094000C480FFE79DF81700002840F0BE80FFE755
:100950000698806A40F0020020F488500699886268
:1009600006994868CA691043097B40EA4101039827
:1009700008430390069881680120B1F5807F0190BB
:1009800008D0FFE7069880680138B0FA80F0400987
:100990000190FFE701990498CA0740F48071002A8A
:1009A00018BF084604900698007D01281ED1FFE775
:1009B0000698007B70B9FFE7069881694EF2000047
:1009C000CFF6FF7000EB41300499084340F400601B
:1009D00004900AE00699886A40F02000886206992F
:1009E000C86A40F00100C862FFE7FFE706980068A8
:1009F000406820F4694004990843069909684860F2
:100A00000698006880684FF2FD71CFF6E1710840EA
:100A1000039908430699096888600698816801204F
:100A2000B1F5807F009008D0FFE706988068013814
:100A3000B0FA80F040090090FFE7009800F0010054
:100A4000002818BF4FF48070B0F5807F09D1FFE710
:100A5000069801690020CFF6F07000EB015002907B
:100A6000FFE706980068C06A20F470000299084306
:100A700006990968C86206980068806840F6FE61B9
:100A8000CFF61F710840039988420CD1FFE7069901
:100A90000020C8620698806A40F0010020F0020041
:100AA0000699886210E00698806A40F0100020F0F5
:100AB0000200069988620699C86A40F00100C8627F
:100AC00001208DF81700FFE708E00699886A40F0DA
:100AD0001000886201208DF81700FFE79DF81700CD
:100AE0008DF81F00FFE79DF81F0008B080BD0000D3
:100AF00080B588B007900020069005900490039080
:100B00000798006842F20041C4F20101884254D1C2
:100B1000FFE7FFE741F21800C4F20200016841F468
:100B200000710160006800F4007002900298FFE715
:100B3000FFE741F21800C4F20200016841F004012D
:100B40000160006800F0040001900198FFE70120B7
:100B500003900320049040F60000C4F2010003A9B2
:100B600000F0DAFB40F2A400C2F20000009008217D
:100B7000C4F2020101600021416081608021C160F6
:100B80004FF4807101614FF48061416120218161E6
:100B90004FF48051C16100F001FB18B1FFE7FFF78E
:100BA000BFFCFFE7FFE7079840F2A401C2F2000193
:100BB000016207984862FFE7FFE708B080BD0000C8
:100BC00080B586B004900391029200208DF8070052
:100BD0000498006842F20041C4F20101884209D041
:100BE000FFE70498006842F60001C4F20101884260
:100BF00009D1FFE742F20440C4F20100006800F4AA
:100C00007020009002E000200090FFE7009800288C
:100C100040F0DC80FFE7FFE7049890F8240001280B
:100C200004D1FFE702208DF81700D8E004990120D5
:100C300081F82400FFE7FFE70498FFF7DFFB8DF85A
:100C400007009DF80700002840F0B880FFE70498EF
:100C5000806A40F4807040F601618843049988629C
:100C60000498006842F60001C4F20101884209D1EB
:100C7000FFE742F20440C4F20100006810F4702F54
:100C800003D018E00020B0B9FFE70499886A20F487
:100C9000801088620498006840684005002809D5E3
:100CA000FFE70498806A40F4805020F400500499D3
:100CB0008862FFE72CE00499886A40F4801088621B
:100CC0000498006842F20041C4F20101884209D050
:100CD000FFE70498006842F60001C4F2010188426F
:100CE00009D1FFE742F20440C4F201000068400568
:100CF000002803D40BE0012048B9FFE70498806A7C
:100D000040F4805020F4005004998862FFE7FFE728
:100D10000498806AC004002806D5FFE70499C86AD1
:100D200020F00600C86203E004990020C862FFE7D3
:100D3000FFE70499002081F82400FFE70498016A86
:100D400040F24130C0F6000088620498016A40F227
:100D5000E530C0F60000C8620498016A40F2B9307C
:100D6000C0F600000863049801686FF00200086094
:100D700004980168886840F480708860049801686D
:100D8000006A4C31039A029B00F060FA04980068F4
:100D9000806800F46020B0F5602F07D1FFE7049869
:100DA0000168886840F4A000886006E00498016843
:100DB000886840F480108860FFE706E0FFE7049948
:100DC000002081F82400FFE7FFE703E001208DF811
:100DD0000700FFE79DF807008DF81700FFE79DF873
:100DE000170006B080BD000080B584B002900020DE
:100DF0008DF80700FFE7029890F82400012804D13D
:100E0000FFE702208DF80F0041E00299012081F8F0
:100E10002400FFE7FFE70298FFF750FA8DF807007C
:100E20009DF8070040BBFFE702980168886820F43E
:100E3000807088600298006A90F8210002281AD118
:100E4000FFE70298006A00F027F88DF807009DF888
:100E5000070048B9FFE70298806A40F0010020F4DB
:100E600088500299886205E00299886A40F0400043
:100E70008862FFE7FFE7FFE7FFE70299002081F8BC
:100E80002400FFE79DF807008DF80F00FFE79DF8AD
:100E90000F0004B080BD000083B0019000208DF8E9
:100EA0000300019890F8210002280DD0FFE7019976
:100EB00004208863FFE70199002081F82000FFE704
:100EC00001208DF80B0021E001980168086820F0EE
:100ED0000E00086001980168086820F001000860B1
:100EE0000198C16B026C012090404860FFE70199B6
:100EF000012081F82100FFE70199002081F82000FE
:100F0000FFE79DF803008DF80B00FFE79DF80B004D
:100F100003B0704780B58EB00D900D98C06B00681F
:100F20000C900D98006800680B900C980D99096C56
:100F3000C8404007002875D5FFE79DF82C00400702
:100F400000286FD5FFE70D9800680068800600282C
:100F500007D4FFE70D980168086820F004000860D6
:100F6000FFE70D9800680821C4F20201884203D10E
:100F7000FFE704200A9047E00D9800681C21C4F2A6
:100F80000201884203D1FFE74020099039E00D9823
:100F900000683021C4F20201884204D1FFE74FF417
:100FA000806008902AE00D9800684421C4F2020194
:100FB000884204D1FFE74FF4804007901BE00D9872
:100FC00000685821C4F20201884204D1FFE74FF4BF
:100FD000802006900CE00D9801686C22C4F2020299
:100FE0004FF08060914208BF4FF480000690FFE709
:100FF00006980790FFE707980890FFE70898099080
:10100000FFE709980A90FFE70A980421C4F2020159
:1010100008600D98C06A20B1FFE70D98C16A884743
:10102000FFE7B8E00C980D99096CC84080070028CC
:1010300040F18080FFE79DF82C008007002879D5DB
:10104000FFE70D9800680068800600280BD4FFE7D2
:101050000D980168086820F00A0008600D990120C9
:1010600081F82100FFE70D9800680821C4F2020111
:10107000884203D1FFE70220059047E00D98006801
:101080001C21C4F20201884203D1FFE72020049012
:1010900039E00D9800683021C4F20201884204D181
:1010A000FFE74FF4007003902AE00D980068442198
:1010B000C4F20201884204D1FFE74FF400500290CD
:1010C0001BE00D9800685821C4F20201884204D147
:1010D000FFE74FF4003001900CE00D9801686C229E
:1010E000C4F202024FF00070914208BF4FF40010AA
:1010F0000190FFE701980290FFE702980390FFE755
:1011000003980490FFE704980590FFE705980421F1
:10111000C4F202010860FFE70D99002081F8200069
:10112000FFE70D98806A20B1FFE70D98816A884734
:10113000FFE72FE00C980D99096CC84000070028C4
:1011400027D5FFE79DF82C000007002821D5FFE7F1
:101150000D980168086820F00E0008600D98C26BB9
:10116000016C012000FA01F151600D9988630D991D
:1011700081F82100FFE70D99002081F82000FFE7AA
:101180000D98006B20B1FFE70D98016B8847FFE7D2
:10119000FFE7FFE7FFE70EB080BD000083B00190DE
:1011A00000200090019820B9FFE701208DF80B0086
:1011B00047E0019908684FF6F872CBF6FD721044CB
:1011C0004CF6CD42CCF6CC42A0FB02026FF00300FD
:1011D00000EA9200086401990020C4F20200C8638A
:1011E0000199022081F821000198006800680090B0
:1011F000009843F6F0718843009001994868D1F84F
:1012000008C0CB680A6940EA0C00184310434A69D9
:1012100010438A691043C96901430098084300904C
:101220000098019909680860019900208863019A73
:10123000012182F82110019981F820008DF80B001E
:10124000FFE79DF80B0003B07047000080B586B043
:10125000049003910292019300208DF80300FFE7B0
:10126000049890F82000012804D1FFE702208DF8AF
:1012700017004CE00499012081F82000FFE7FFE708
:10128000049890F82100012832D1FFE70499022048
:1012900081F8210004990020886304980168086897
:1012A00020F00100086004980399029A019BFFF75F
:1012B0000DF90498C06A38B1FFE70498016808681E
:1012C00040F00E0008600CE004980168086820F007
:1012D0000400086004980168086840F00A0008608B
:1012E000FFE704980168086840F00100086009E021
:1012F000FFE70499002081F82000FFE702208DF825
:101300000300FFE79DF803008DF81700FFE79DF845
:10131000170006B080BD000090B00F900E91002025
:101320000D900990FFE70E9800680D99C8400028BD
:1013300000F07F81FFE70D99012088400C900E9806
:1013400000680C9908400B900B980C99884240F06B
:101350006C81FFE70E9840680590002851D0FFE7A8
:10136000059801283AD0FFE7059802283FD0FFE70B
:10137000059803285FD0FFE70598112832D0FFE7D2
:101380000598122838D0FFE705980021C1F2110115
:10139000884236D0FFE705980021C1F21201884249
:1013A0002FD0FFE705980021C1F22101884228D003
:1013B000FFE705980021C1F22201884221D0FFE712
:1013C00005980021C1F2310188421AD0FFE7059843
:1013D0000021C1F23201884213D02FE00E98C0687C
:1013E00009902CE00E98C0680430099027E00E9810
:1013F000C0680830099022E00E98C0680C3009904F
:101400001DE00E98806818B9FFE70420099011E0EC
:101410000E988068012806D1FFE7082009900C98F3
:101420000F99086105E0082009900C980F99486110
:10143000FFE7FFE703E00020099000E0FFE70B98DB
:10144000FF2803D8FFE70F98049003E00F980430BB
:101450000490FFE7049808900B98FF2804D8FFE752
:101460000D988000039006E00D996FF01F0000EBCF
:1014700081000390FFE70398079008980068079A97
:101480000F219140884309999140084308990860C9
:101490000E98C079C006002840F1C680FFE7FFE73C
:1014A00041F21800C4F20200016841F0010101603C
:1014B000006800F0010006900698FFE70D9820F004
:1014C00003000821C4F2010140580A900D9800F071
:1014D000030081000F2000FA01F10A9888430A9066
:1014E0000F9840F60001C4F20101884203D1FFE7E2
:1014F0000020029026E00F9840F60041C4F201015E
:10150000884203D1FFE70120019018E00F9841F2D3
:101510000001C4F20101884203D1FFE702200090DC
:101520000AE00F9941F20042C4F201020420914204
:1015300008BF03200090FFE700980190FFE70198A3
:101540000290FFE702980D9901F00301890000FA6B
:1015500001F10A9808430A900A980D9921F00301B5
:101560000822C4F2010288500E988079C006002833
:1015700009D5FFE70B9A40F20841C4F2010108685F
:101580001043086008E00B9A40F20841C4F20101E0
:10159000086890430860FFE70E988079800600286D
:1015A00009D5FFE70B9A40F20C41C4F2010108682B
:1015B0001043086008E00B9A40F20C41C4F20101AC
:1015C000086890430860FFE70E988079800700283C
:1015D00009D5FFE70B9A40F20441C4F20101086803
:1015E0001043086008E00B9A40F20441C4F2010184
:1015F000086890430860FFE70E988079C00748B1FB
:10160000FFE70B9A40F20041C4F201010868104361
:10161000086008E00B9A40F20041C4F2010108683A
:1016200090430860FFE7FFE7FFE70D9801300D905A
:1016300079E610B07047000082B00190ADF802105A
:1016400001988068BDF80210084204D0FFE701202D
:101650008DF8010003E000208DF80100FFE79DF800
:10166000010002B07047000082B00190ADF8021096
:101670008DF801209DF8010028B1FFE7BDF80200B8
:101680000199086105E0BDF80200000401990861B4
:10169000FFE702B07047000040F2FC10C2F2000009
:1016A0000068704780B584B00290029820B9FFE7C7
:1016B00001208DF80F0039E0029801684CF6CC400B
:1016C00008600298016845F2555008600298016868
:1016D000406848600298016880688860FFF7DCFF16
:1016E0000190FFE702980068C0688007A8B1FFE793
:1016F000FFF7D2FF0199401A41F23D3188420BD3E6
:10170000FFE702980068C068800720B1FFE7032068
:101710008DF80F000AE0FFE7E4E7029801684AF657
:10172000AA20086000208DF80F00FFE79DF80F0049
:1017300004B080BD81B00090009801684AF6AA20EC
:101740000860002001B0704740F20400C2F20000BF
:10175000027840F2FC11C2F20001086810440860EF
:101760007047000080B542F20001C4F2020108682F
:1017700040F010000860032000F096F80F2000F001
:1017800005F800F03BF8002080BD000080B582B075
:10179000009040F20000C2F20000006840F2040134
:1017A000C2F200010A784FF47A71B1FBF2F1B0FB9A
:1017B000F1F000F023FF20B1FFE701208DF80700D2
:1017C00018E000980F280DD8FFE700994FF0FF3080
:1017D000002200F04FF8009840F20801C2F2000128
:1017E000086003E001208DF8070003E000208DF879
:1017F0000700FFE79DF8070002B080BD83B0FFE758
:1018000041F21800C4F20200016841F001010160D8
:10181000006800F0010002900298FFE7FFE741F244
:101820001C00C4F20200016841F0805101600068B0
:1018300000F0805001900198FFE7FFE70421C4F217
:10184000010108680090009820F0E0600090009886
:1018500040F00070009000980860FFE703B0704708
:1018600080B582B08DF807009DF9070001F038FDC2
:1018700002B080BD80B586B08DF817000491039248
:101880000020029001F044FD02909DF917000190A4
:1018900002980499039A01F0D5FA0146019801F0E3
:1018A0003FFD06B080BD000080B582B00190019878
:1018B00001F058FD02B080BD80B588B007900020CF
:1018C00006900590049003900290079801900128DB
:1018D00066D0FFE70198022800F0A580FFE7019895
:1018E000102840F0B080FFE741F20400C4F202008B
:1018F0000068039041F20000C4F202000068C001D9
:1019000000284CD5FFE70398C0F3834143F65660A7
:10191000C0F60000405C04909DF80E00C007F0B1D6
:10192000FFE741F20400C4F202000068C0F3404146
:1019300043F66660C0F60000405C06909DF80E001D
:10194000C00758B1FFE7069941F20020C0F27A00C3
:10195000B0FBF1F0049948430590FFE707E00498D5
:1019600040F60011C0F23D0148430590FFE741F207
:101970000400C4F2020000684002002803D5FFE71B
:10198000059802900AE0059840004AF6AB21CAF695
:10199000AA21A0FB011040080290FFE7FFE753E0F7
:1019A00041F22000C4F2020000680390039800F4A2
:1019B0004070B0F5807F0AD1FFE79DF80C008007EA
:1019C000002804D5FFE74FF4004002902AE0039876
:1019D00000F44070B0F5007F0DD1FFE741F2240024
:1019E000C4F2020000688007002804D5FFE749F62A
:1019F0004040029015E0039800F44070B0F5407F3D
:101A00000DD1FFE741F20000C4F20200006880033C
:101A1000002804D5FFE74FF22440029000E0FFE7E2
:101A2000FFE7FFE710E000F03BFA41F20401C4F2E7
:101A30000201096801F44042022101EB5231B0FB7E
:101A4000F1F0029000E0FFE7029808B080BD0000CE
:101A500080B586B00490002003900290049800782E
:101A6000C007002800F0AC80FFE700208DF80700D9
:101A700041F21C00C4F202000068C000002813D428
:101A8000FFE7FFE741F21C00C4F20200016841F0E9
:101A900080510160006800F0805000900098FFE7DE
:101AA00001208DF80700FFE747F20000C4F20000B4
:101AB0000068C005002822D4FFE747F20001C4F205
:101AC0000001086840F480700860FFF7E5FD0390AE
:101AD000FFE747F20000C4F200000068C0050028DC
:101AE0000CD4FFE7FFF7D8FD0399401A652804D30B
:101AF000FFE703208DF817008AE0EAE7FFE741F2ED
:101B00002000C4F20200006800F4407002900298C5
:101B1000E0B3FFE702980499496801F440718842F4
:101B200034D0FFE741F22001C4F20201086820F43A
:101B30004070029040F24042C4F242220120106004
:101B400000201060029808609DF80800C007E0B10E
:101B5000FFE7FFF7A1FD0390FFE741F22000C4F289
:101B600002000068800700280ED4FFE7FFF794FD0D
:101B70000399401A41F28931884204D3FFE70320D8
:101B80008DF8170044E0E8E7FFE7FFE741F22001A6
:101B9000C4F20201086820F44070049A52681043AD
:101BA00008609DF80700012809D1FFE741F21C01F8
:101BB000C4F20201086820F080500860FFE7FFE7E8
:101BC00004980078800700280CD5FFE741F2040153
:101BD000C4F20201086820F44040049A926810435D
:101BE0000860FFE704980078C00600280CD5FFE7DE
:101BF00041F20401C4F20201086820F48000049A52
:101C0000D26810430860FFE700208DF81700FFE757
:101C10009DF8170006B080BD80B584B00290019198
:101C2000029820B9FFE701208DF80F001BE1019811
:101C300042F20001C4F20201096801F00701884282
:101C400016D9FFE742F20000C4F20200016821F059
:101C50000701019A11430160006800F00700019933
:101C6000884204D0FFE701208DF80F00FBE0FFE77A
:101C700002980078800700282AD5FFE702980078AC
:101C80004007002809D5FFE741F20401C4F2020130
:101C9000086840F4E0600860FFE7029800780007F9
:101CA000002809D5FFE741F20401C4F202010868E7
:101CB00040F460500860FFE741F20401C4F2020101
:101CC000086820F0F000029A926810430860FFE76D
:101CD00002980078C007002860D0FFE702984068AB
:101CE00001280ED1FFE741F20000C4F202000068B3
:101CF0008003002804D4FFE701208DF80F00B2E034
:101D000021E00298406802280ED1FFE741F200006E
:101D1000C4F2020000688001002804D4FFE701201B
:101D20008DF80F009FE00DE041F20000C4F20200C8
:101D300000688007002804D4FFE701208DF80F0019
:101D400091E0FFE7FFE741F20401C4F202010868F5
:101D500020F00300029A526810430860FFF79CFCD1
:101D60000090FFE741F20400C4F20200006800F0B6
:101D70000C0002994968B0EB810F0ED0FFE7FFF726
:101D80008BFC0099401A41F28931884204D3FFE765
:101D900003208DF80F0066E0E4E7FFE7019842F2C8
:101DA0000001C4F20201096801F00701884216D25D
:101DB000FFE742F20000C4F20200016821F00701CF
:101DC000019A11430160006800F007000199884200
:101DD00004D0FFE701208DF80F0044E0FFE70298F0
:101DE0000078400700280CD5FFE741F20401C4F257
:101DF0000201086820F4E060029AD268104308608B
:101E0000FFE702980078000700280DD5FFE741F2B0
:101E10000401C4F20201086820F46050029A1269B9
:101E200040EAC2000860FFE700F04CF841F204010C
:101E3000C4F202010968C9B20A0943F63E61C0F65C
:101E40000001895CC84040F20001C2F20001086054
:101E500040F20800C2F200000068FFF797FC002083
:101E60008DF80F00FFE79DF80F0004B080BD000063
:101E700040F20000C2F200000068704780B5FFF732
:101E8000F7FF41F20401C4F202010968C1F3022222
:101E900043F64E61C0F60001895CC84080BD000079
:101EA00080B5FFF7E5FF41F20401C4F202010968C1
:101EB000C1F3C22243F64E61C0F60001895CC840FE
:101EC00080BD000086B00020059004900390029031
:101ED000019041F20400C4F20200006805900598E8
:101EE00000F00C000146009100283FD0FFE7009869
:101EF000042804D0FFE70098082806D037E041F214
:101F00000020C0F27A00019037E00598C0F38341C9
:101F100043F66860C0F60000405C02909DF8160031
:101F2000C007C0B1FFE741F20400C4F2020000683C
:101F3000C0F3404143F67860C0F60000405C049076
:101F4000029841F20021C0F27A0148430499B0FBA3
:101F5000F1F0039007E0029840F60011C0F23D0155
:101F600048430390FFE70398019006E0FFE741F242
:101F70000020C0F27A000190FFE7019806B0704798
:101F800080B586B00490049820B9FFE701208DF851
:101F900017002EE304980078C007002800F0AE80F8
:101FA000FFE741F20400C4F20200006800F00C00F8
:101FB000042813D0FFE741F20400C4F202000068D5
:101FC00000F00C0008281BD1FFE741F20400C4F226
:101FD00002000068C003002812D5FFE741F20000AC
:101FE000C4F2020000688003002808D5FFE70498C7
:101FF000406820B9FFE701208DF81700F9E27CE086
:10200000FFE704984068B0F5803F09D1FFE741F24F
:102010000001C4F20201086840F48030086032E038
:102020000498406868B9FFE741F20001C4F2020178
:10203000086820F480300860086820F48020086078
:1020400020E004984068B0F5A02F0DD1FFE741F2E1
:102050000001C4F20201086840F4802008600868AA
:1020600040F4803008600CE041F20001C4F202014B
:10207000086820F480300860086820F48020086038
:10208000FFE7FFE7FFE7FFE704984068D0B1FFE70D
:10209000FFF702FB0390FFE741F20000C4F20200E9
:1020A0000068800300280CD4FFE7FFF7F5FA0399D6
:1020B000401A652804D3FFE703208DF8170098E243
:1020C000EAE719E0FFF7E8FA0390FFE741F20000C2
:1020D000C4F202000068800300280CD5FFE7FFF778
:1020E000DBFA0399401A652804D3FFE703208DF833
:1020F00017007EE2EAE7FFE7FFE7FFE704980078D2
:102100008007002840F18D80FFE741F20400C4F20F
:102110000200006810F00C0F13D0FFE741F204003A
:10212000C4F20200006800F00C00082829D1FFE783
:1021300041F20400C4F202000068C003002820D469
:10214000FFE741F20000C4F20200006880070028A7
:1021500009D5FFE704980069012804D0FFE70120B2
:102160008DF8170045E241F20001C4F2020108684F
:1021700020F0F800049A526940EAC2000860FFE7C4
:102180004EE00498006958B3FFE70021C4F24221F1
:1021900001200860FFF780FA0390FFE741F200009A
:1021A000C4F202000068800700280CD4FFE7FFF7A4
:1021B00073FA0399401A032804D3FFE703208DF82C
:1021C000170016E2EAE741F20001C4F202010868D2
:1021D00020F0F800049A526940EAC20008601EE04C
:1021E0000021C4F2422100200860FFF755FA039055
:1021F000FFE741F20000C4F20200006880070028F7
:102200000CD5FFE7FFF748FA0399401A032804D3D7
:10221000FFE703208DF81700EBE1EAE7FFE7FFE7B0
:10222000FFE7049800780007002848D5FFE70498E6
:10223000806918B3FFE740F28041C4F242210120D7
:102240000860FFF729FA0390FFE741F22400C4F287
:1022500002000068800700280CD4FFE7FFF71CFA93
:102260000399401A032804D3FFE703208DF81700D1
:10227000BFE1EAE7012000F01DFE1FE040F28041CF
:10228000C4F2422100200860FFF706FA0390FFE73E
:1022900041F22400C4F202000068800700280CD537
:1022A000FFE7FFF7F9F90399401A032804D3FFE782
:1022B00003208DF817009CE1EAE7FFE7FFE70498A9
:1022C00000784007002840F1D880FFE700208DF813
:1022D000070041F21C00C4F202000068C0000028A0
:1022E00013D4FFE7FFE741F21C00C4F202000168CB
:1022F00041F080510160006800F08050009000982B
:10230000FFE701208DF80700FFE747F20000C4F265
:1023100000000068C005002822D4FFE747F2000152
:10232000C4F20001086840F480700860FFF7B4F957
:102330000390FFE747F20000C4F200000068C00508
:1023400000280CD4FFE7FFF7A7F90399401A652886
:1023500004D3FFE703208DF817004AE1EAE7FFE71F
:10236000FFE70498C068012809D1FFE741F2200186
:10237000C4F20201086840F00100086031E00498EE
:10238000C06868B9FFE741F22001C4F202010868A1
:1023900020F001000860086820F0040008601FE0D9
:1023A0000498C06805280DD1FFE741F22001C4F26E
:1023B0000201086840F004000860086840F001006D
:1023C00008600CE041F22001C4F20201086820F02C
:1023D00001000860086820F004000860FFE7FFE7DC
:1023E000FFE7FFE70498C068E0B1FFE7FFF754F9A3
:1023F0000390FFE741F22000C4F20200006880076A
:1024000000280ED4FFE7FFF747F90399401A41F27D
:102410008931884204D3FFE703208DF81700E8E0F4
:10242000E8E71BE0FFF738F90390FFE741F22000EF
:10243000C4F202000068800700280ED5FFE7FFF70E
:102440002BF90399401A41F28931884204D3FFE7FE
:1024500003208DF81700CCE0E8E7FFE79DF80700C0
:10246000012809D1FFE741F21C01C4F2020108680A
:1024700020F080500860FFE7FFE70498C06900285B
:1024800000F0B380FFE741F20400C4F202000068EC
:1024900000F00C00082800F08280FFE70498C06973
:1024A00002285CD1FFE76021C4F2422100200860CD
:1024B000FFF7F2F80390FFE741F20000C4F20200D8
:1024C0000068800100280CD5FFE7FFF7E5F80399C5
:1024D000401A032804D3FFE703208DF8170088E093
:1024E000EAE70498006AB0F5803F0CD1FFE741F2BB
:1024F0000401C4F20201086820F40030049A9268D2
:1025000010430860FFE741F20401C4F202010868C9
:1025100020F47410049B1A6A5B6A1A431043086023
:102520006021C4F2422101200860FFF7B5F8039052
:10253000FFE741F20000C4F20200006880010028B9
:102540000CD4FFE7FFF7A8F80399401A032804D337
:10255000FFE703208DF817004BE0EAE71EE060215B
:10256000C4F2422100200860FFF796F80390FFE7CD
:1025700041F20000C4F202000068800100280CD57E
:10258000FFE7FFF789F80399401A032804D3FFE710
:1025900003208DF817002CE0EAE7FFE724E0049819
:1025A000C069012804D1FFE701208DF8170020E061
:1025B00041F20400C4F2020000680290029800F4A4
:1025C00080300499096A884208D1FFE7029800F434
:1025D00070100499496A884204D0FFE701208DF801
:1025E000170006E0FFE7FFE7FFE700208DF8170080
:1025F000FFE79DF8170006B080BD000080B582B0EF
:102600000190019800F076FC02B080BD85B0039087
:102610000291FFE7039890F83C00012804D1FFE7FE
:1026200002208DF813005BE00399012081F83C0043
:10263000FFE7FFE70399022081F83D000398006857
:10264000406801900398006880680090019820F02D
:102650007000019002980168019808430190019868
:102660000399096848600398006842F60041C4F283
:102670000101884218D0FFE703980068B0F1804F4D
:1026800012D0FFE70398006840F20041C4F2000155
:10269000884209D0FFE70398006840F60001C4F2C1
:1026A000000188420ED1FFE7009820F080000090E2
:1026B00002984168009808430090009803990968BF
:1026C0008860FFE70399012081F83D00FFE7039947
:1026D000002081F83C00FFE700208DF81300FFE7A1
:1026E0009DF8130005B0704780B582B00090009847
:1026F00020B9FFE701208DF807003FE0009890F82F
:102700003D0040B9FFE70099002081F83C000098A7
:1027100000F038F8FFE70099022081F83D000099A9
:1027200051F8040B00F060FC0099012081F846008C
:10273000FFE70099012081F83E00009981F83F00F1
:10274000009981F84000009981F84100FFE7FFE718
:102750000099012081F84200009981F84300009916
:1027600081F84400009981F84500FFE700990120B5
:1027700081F83D0000208DF80700FFE79DF8070075
:1027800002B080BD82B001900198006840F2004123
:10279000C4F20001884210D1FFE7FFE741F21C00BC
:1027A000C4F20200016841F002010160006800F01B
:1027B000020000900098FFE7FFE702B070470000BA
:1027C00083B00190019890F83D00012804D0FFE704
:1027D00001208DF80B0041E00199022081F83D00B5
:1027E0000198006842F60041C4F20101884218D005
:1027F000FFE701980068B0F1804F12D0FFE7019821
:10280000006840F20041C4F20001884209D0FFE7AD
:102810000198006840F60001C4F20001884212D11C
:10282000FFE701980068806800F0070000900098BA
:10283000062807D0FFE701980168086840F001000A
:102840000860FFE706E001980168086840F00100B1
:102850000860FFE700208DF80B00FFE79DF80B00F4
:1028600003B0704780B586B00490039100208DF8C6
:102870000B00FFE7049890F83C00012804D1FFE723
:1028800002208DF81700ABE00499012081F83C008C
:10289000FFE7FFE70499022081F83D0004980068F3
:1028A00080680190019820F077000190019820F451
:1028B0007F40019001980499096888600398006836
:1028C0000090002872D0FFE7009810286ED0FFE734
:1028D000009820286AD0FFE70098302866D0FFE7EC
:1028E0000098402855D0FFE70098502837D0FFE7E0
:1028F0000098602840D0FFE7009870280BD0FFE7D1
:102900000098B0F5805F05D0FFE70098B0F5005F54
:1029100016D052E055E004980068039B5A68996805
:10292000DB6800F0DFFB0498006880680190019884
:1029300040F077000190019804990968886040E0B0
:1029400004980068039B5A689968DB6800F0CAFB2A
:1029500004980168886840F48040886031E00498F9
:102960000068039A5168D26800F0ECFB0498006894
:10297000502100F0D1FB24E004980068039A5168CC
:10298000D26800F015FC04980068602100F0C4FBD8
:1029900017E004980068039A5168D26800F0D2FBEF
:1029A00004980068402100F0B7FB0AE00498006832
:1029B0000399096800F0B0FB03E001208DF80B00DB
:1029C000FFE70499012081F83D00FFE7049900200A
:1029D00081F83C00FFE79DF80B008DF81700FFE73A
:1029E0009DF8170006B080BD80B582B000900098B9
:1029F00020B9FFE701208DF8070040E000988069CA
:102A000008B1FFE700E0FFE7009890F8410040B907
:102A1000FFE70099002081F84000009800F034F8AA
:102A2000FFE70099242081F8410000980168C868F8
:102A300020F40050C860009800F0F2FB0098016894
:102A4000086920F49040086100980168486920F006
:102A50002A00486100980168C86840F40050C860C6
:102A6000009900204864009A202182F84110009AC1
:102A700082F84210009948638DF80700FFE79DF83F
:102A8000070002B080BD000080B58AB00990002028
:102A900008900790069005900998006843F6000199
:102AA000C4F20101884239D1FFE7FFE741F2180083
:102AB000C4F20200016841F480410160006800F442
:102AC000804004900498FFE7FFE741F21800C4F249
:102AD0000200016841F004010160006800F0040098
:102AE00003900398FFE74FF40070059002200690D2
:102AF0000320089040F60000C4F20100019005A9EF
:102B00000291FEF709FC019802994FF48062059248
:102B1000002206920792FEF7FFFBFFE70AB080BD96
:102B2000FFE7FEE780B584B0002103910291019197
:102B300040F27400C2F20000009042F20042C4F27F
:102B4000010202608160017301754FF40022C261CD
:102B5000416001210161FDF7C1FE18B1FFE7FDF7FA
:102B6000DFFCFFE700200190012002900720039086
:102B700040F27400C2F2000001A9FDF79FFD18B1F8
:102B8000FFE7FDF7CDFCFFE704B080BD80B582B064
:102B9000FFE741F21400C4F20200016841F00101B4
:102BA0000160006800F0010001900198FFE70B2030
:102BB000009000221146FEF75DFE0098FEF750FEE1
:102BC00002B080BD80B592B00020119010900F909F
:102BD0000E90FFE741F21800C4F20200016841F0D4
:102BE00010010160006800F010000D900D98FFE7E3
:102BF000FFE741F21800C4F20200016841F0200131
:102C00000160006800F020000C900C98FFE7FFE7DF
:102C100041F21800C4F20200016841F004010160B1
:102C2000006800F004000B900B98FFE7FFE741F20B
:102C30001800C4F20200016841F008010160006858
:102C400000F008000A900A98FFE741F20000C4F281
:102C5000010001904FF46041009101220492FEF7BF
:102C600003FD40F60040C4F2010003904FF4805190
:102C700000220592FEF7F8FC049A40F60000C4F228
:102C8000010007904FF400410991FEF7EDFC039815
:102C9000049A3821FEF7E8FC009B0198049A0599F4
:102CA0000E930F9210910221069111910EA9089195
:102CB000FEF732FB0798089941F6FA120E920322AA
:102CC00002920F92FEF728FB059A079808990423B1
:102CD0000E930F921092FEF71FFB0398049B059A28
:102CE00008990E930F921092FEF716FB029A039822
:102CF00008994EF6C6730E930F92FEF70DFB0398DC
:102D0000DDF810C0059B069A089941F2380ECDF8FF
:102D100038E0CDF83CC010931192FEF7FDFADDF8D3
:102D200010C0059B069A07980899DDF824E0CDF8B5
:102D300038E0CDF83CC010931192FEF7EDFA12B0D6
:102D400080BD000080B540F2E800C2F2000043F20E
:102D50000001C4F2000101600421416040F252719F
:102D60008160FEF79FFC18B1FFE7FDF7D9FBFFE795
:102D700080BD000080B588B00021019107910691C7
:102D8000059104910391029140F2F400C2F2000017
:102D900040F20042C4F20002026041F61F4242606B
:102DA00081606322C26001618161FFF79DFC18B1FF
:102DB000FFE7FDF7B5FBFFE74FF48050049040F2CA
:102DC000F400C2F2000004A9FFF74CFD18B1FFE7C0
:102DD000FDF7A6FBFFE7202002900020039040F2C1
:102DE000F400C2F2000002A9FFF710FC18B1FFE7DF
:102DF000FDF796FBFFE708B080BD000080B582B00C
:102E000040F23C10C2F20000019043F60001C4F20F
:102E1000010101604FF4E131416000218160C16036
:102E200001610C2242618161C161FFF7DDFD18B1D2
:102E3000FFE7FDF775FBFFE702B080BDFFE7FEE7A8
:102E4000FFE7FEE788B0079006910592079800F02B
:102E5000070004900498C0F10700052803D3FFE79A
:102E60000420019004E00498C0F107000190FFE7FE
:102E70000198039004980430062803D8FFE7002047
:102E8000009003E0049803380090FFE70098029058
:102E900006980399012202FA01F101390840029BC8
:102EA000984005999A40013A1140084308B070478C
:102EB0007047000082B00190019840F20001C2F218
:102EC00000010968C90844F6D352C1F26202A1FBAD
:102ED0000221890948430090FFE700BFFFE70098FF
:102EE000411E00910028F8D1FFE702B070470000B2
:102EF0007047000080B582B0009000980138B0F1B2
:102F0000807F03D3FFE70120019019E0009801388A
:102F10004EF21401CEF2000108604FF0FF300F2195
:102F200000F0FEF94EF21801CEF200010020086018
:102F30004EF21002CEF20002072111600190FFE76D
:102F4000019802B080BD000080B5FEF7FDFB80BD9A
:102F500080B596B00CA801902821FDF74BF9019897
:102F6000002202920B920A9209920892079206920C
:102F700005920492039209210C914FF480310D9136
:102F80000E920122109212920222139214914FF487
:102F9000E0111591FEF7F4FF18B1FFE7FDF7C0FA55
:102FA000FFE70F20079002210891002009904FF4BD
:102FB00080620A920B9007A8FEF72EFE18B1FFE779
:102FC000FDF7AEFAFFE7022003904FF400400590B2
:102FD00003A8FEF73DFD18B1FFE7FDF7A1FAFFE7F3
:102FE00016B080BD7047000083B002900191029836
:102FF00000680090029842F60041C4F20101884244
:1030000015D0FFE70298B0F1804F10D0FFE702988B
:1030100040F20041C4F20001884208D0FFE7029864
:1030200040F60001C4F2000188420AD1FFE700988F
:1030300020F07000009001984168009808430090CB
:10304000FFE7029842F60041C4F20101884215D020
:10305000FFE70298B0F1804F10D0FFE7029840F2EE
:103060000041C4F20001884208D0FFE7029840F610
:103070000001C4F2000188420AD1FFE7009820F461
:10308000407000900198C168009808430090FFE7E5
:10309000009820F080000199496908430090019848
:1030A00080680299C8620198006802998862029853
:1030B00042F60041C4F20101884205D1FFE70198C0
:1030C000006902990863FFE70299086840F004006C
:1030D000086002990120486100980299086003B0D5
:1030E0007047000085B00490039102920193049808
:1030F00080680090009820F47F4000900398029927
:10310000019A41EA02210143009808430090009887
:103110000499886005B0704783B0029001910298CD
:1031200080680090009820F070000090019800994D
:10313000084340F00700009000980299886003B0AF
:103140007047000085B00490039102920498006AD1
:1031500000900499086A20F001000862049842F681
:103160000041C4F20101884206D1FFE70499086AD0
:1031700020F004000862FFE704988069019001983C
:1031800020F0F00001900299019840EA01100190AE
:10319000009820F00A0000900399009808430090DE
:1031A00001980499886100980499086205B07047F5
:1031B00085B00490039102920498006A00900499EB
:1031C000086A20F010000862049842F60041C4F238
:1031D0000101884206D1FFE70499086A20F0400007
:1031E0000862FFE7049880690190019820F470401C
:1031F00001900299019840EA01300190009820F076
:10320000A00000900399009840EA011000900198F6
:103210000499886100980499086205B0704700001D
:1032200080B584B0039003980068006920F4405092
:10323000039A1168D26810430861039988680A6983
:10324000496910430843029003980068C06841F23E
:103250000C6188430299084303990968C860039880
:103260000068406920F44070039A11689269104325
:1032700048610398006843F60001C4F201018842E6
:1032800004D1FFE7FEF70CFE019003E0FEF7F6FD28
:103290000190FFE7019819214843039A1168526889
:1032A0009200B0FBF2FC48F21F52C5F2EB12ACFBED
:1032B00002304309642003FB10CC322000EB0C10D9
:1032C000A0FB0202F02000EA521000EB0310C2F350
:1032D00043121044886004B080BD0000FFE7FEE7A1
:1032E00081B08DF803009DF9030000280ED4FFE79C
:1032F0009DF9031001F01F02012090404A094EF28F
:103300000011CEF2000141F82200FFE701B0704742
:103310004EF60C50CEF200000068C0F30220704759
:1033200082B08DF8070000919DF9070000280AD4AB
:10333000FFE7009800019DF907104EF20042CEF21F
:10334000000288540BE0009800019DF8071001F07E
:103350000F014EF61452CEF200028854FFE702B07D
:103360007047000083B00290029800F007000090C0
:103370004EF60C51CEF200010868019001984FF60C
:10338000FF02104001900198009A40EA02200022BA
:10339000C0F2FA52104301900198086003B07047E0
:1033A00080B582B08DF807009DF8070000F001029B
:1033B00040F60040C4F201004FF48051FEF754F98A
:1033C00002B080BD80B540F60000C4F201000421C7
:1033D000FEF732F9B0FA80F0400980BD80B540F6C2
:1033E0000040C4F201000121FEF726F9B0FA80F096
:1033F000400980BD80B582B08DF807008DF80610B9
:103400009DF80610012088438DF805009DF80700FF
:103410000146009140B1FFE7009801280FD0FFE777
:103420000098022816D020E09DF8052041F2000007
:10343000C4F201004FF40051FEF716F916E09DF8B2
:10344000052041F20000C4F201004FF48041FEF774
:103450000BF90BE09DF8052041F20000C4F20100D9
:103460004FF40041FEF700F900E0FFE702B080BD35
:1034700080B582B0002101910846FFF7BBFF01999A
:103480000120FFF7B7FF01990220FFF7B3FF02B059
:1034900080BD000080B582B08DF807008DF8061061
:1034A0009DF80610012088438DF805009DF807005F
:1034B0000146009103282DD80099DFE801F0020CA5
:1034C00016209DF8052040F60040C4F2010020219E
:1034D000FEF7CAF81FE09DF8052040F60040C4F250
:1034E00001001021FEF7C0F815E09DF8052040F618
:1034F0000040C4F201000821FEF7B6F80BE09DF889
:10350000052040F60000C4F201004FF40041FEF730
:10351000ABF800E0FFE702B080BD000080B582B0EC
:10352000002101910846FFF7B5FF01990120FFF73F
:10353000B1FF01990220FFF7ADFF01990320FFF7CA
:10354000A9FF02B080BD000081B000900098007813
:1035500000F0010001B0704784B003908DF80B10AB
:10356000019200939DF80B00039900F00100087090
:103570009DF80B00039900F0010048700198039931
:10358000486000980399886004B0704784B0029046
:103590008DF8071000929DF8070000F001000299D5
:1035A000497801F0010188420DD0FFE79DF807003E
:1035B000029900F0010048700098029948600020CC
:1035C0008DF80F001FE002980178407800F00100AC
:1035D00001F00101884212D0FFE7009802994A6881
:1035E0008968801A884209D3FFE70299487800F079
:1035F0000100087001208DF80F0004E0FFE70020B3
:103600008DF80F00FFE79DF80F0004B07047000031
:1036100080B582B000200190FEF7A4F8FFF798FC77
:1036200042F20401CEF20401086840F480700860A0
:10363000FFF7C8FAFFF7AAFAFFF774FAFFF79AFB49
:10364000FFF7DCFBFFF77EFBFEF726F800F02AFA17
:1036500018B9FFE7FCF764FFFFE7FFE7FEF71CF888
:1036600000F060FA40F2E800C2F20000FEF762F8F3
:10367000F4E7000040F2B810C2F200000088704782
:1036800040F2DE10C2F200000078704780B582B0D0
:1036900040F29111C2F200010020087040F2BA110C
:1036A000C2F20001088040F2B811C2F200010880A5
:1036B00040F2BC11C2F20001087040F2DF11C2F208
:1036C0000001087040F2B411C2F20001086040F23B
:1036D000DE11C2F20001087040F27400C2F2000074
:1036E000FCF726FF20B1FFE700208DF8070030E04F
:1036F00040F27400C2F2000040F29211C2F20001E6
:103700001022FDF75DFA20B1FFE700208DF80700D9
:103710001FE040F27400C2F20000006A016808680D
:1037200020F00400086040F2F400C2F20000FFF74D
:1037300047F850B1FFE740F27400C2F20000FDF715
:1037400053FB00208DF8070003E001208DF80700EF
:10375000FFE79DF8070002B080BD000040F2BC10FA
:10376000C2F20000007800F00100704740F2DF1064
:10377000C2F20000007800F00100704790B00C9099
:103780000020039040F29110C2F200000078C007C0
:1037900030BBFFE740F2BC10C2F200000078C00767
:1037A000E8B1FFE70C9840F2B411C2F200010968D9
:1037B000401AB0F5FA7F12D3FFE740F2BC11C2F213
:1037C00000010020087040F2DF11C2F20001087011
:1037D00040F2DE11C2F2000104200870FFE7C7E0EA
:1037E000EFF310800D900D980190EFF3108072B6FA
:1037F0000E9000200290FFE702980F2810D8FFE7F4
:10380000029940F2BE10C2F2000030F81100029A94
:1038100004A921F81200FFE7029801300290EBE7BB
:1038200040F29111C2F200010020087001990F913D
:103830000F9981F310880290FFE702980F280CD8A7
:10384000FFE7029904A830F8111003980844039088
:10385000FFE7029801300290EFE703980009ADF806
:103860000200BDF8020040F2BA11C2F20001088065
:103870000C9840F2B411C2F20001086040F2BC1191
:10388000C2F2000101200870BDF8020000092228E0
:1038900012D8FFE740F2DF11C2F2000100200870E9
:1038A00040F2DE12C2F200020221117040F2B811A1
:1038B000C2F2000108805BE0BDF8020040F63D71F5
:1038C000884214D3FFE740F2DF11C2F2000100206A
:1038D000087040F2DE11C2F200010320087040F2CD
:1038E000B811C2F2000142F21070088040E040F2CC
:1038F000DF11C2F200010120087040F2DE11C2F2B5
:1039000000010870BDF8020040F2E921884207D8A2
:10391000FFE740F2B811C2F200010020088027E062
:10392000BDF8020040F68B61884208D3FFE740F201
:10393000B811C2F2000142F21070088017E0BDF821
:10394000020045F27022CFF68E7242F2107100FB37
:103950000120400847F24501C2F60341A0FB0110D7
:10396000000A40F2B811C2F200010880FFE7FFE749
:1039700010B0704780B586B08DF8170040F2F8108F
:10398000C2F20000007828B9FFE7FFF7C7FDFFF794
:103990006FFD64E040F2E010C2F20000007800F039
:1039A00001008DF816009DF817100020C90704903B
:1039B00099B1FFE740F27000C2F2000001780020E8
:1039C000C907049049B1FFE740F29010C2F200002D
:1039D000007880F001000490FFE7049800F00100F7
:1039E0008DF8150040F2F810C2F20000007802389D
:1039F000B0FA80F040098DF814009DF8160000F030
:103A0000010100200190FFF745FD9DF8150000F031
:103A1000010101200290FFF73DFD9DF8140000F028
:103A2000010102200390FFF735FD01990320FFF704
:103A300031FD01989DF8161001F00101FFF7DAFC45
:103A400002989DF8151001F00101FFF7D3FC0398CF
:103A50009DF8141001F00101FFF7CCFCFFE706B060
:103A600080BD000080B540F2F811C2F200010020D4
:103A7000087040F27001C2F20001087040F2E011DB
:103A8000C2F20001087040F2E811C2F200010870B1
:103A900040F2E411C2F200010860FFF7E9FCFFF711
:103AA0003DFD80BD80B584B00290FFF7DBFF40F2A2
:103AB0009011C2F2000100200870FFF771FCFFF7BF
:103AC0008DFC8DF80700FFF77DFC8DF80600029A4B
:103AD0009DF8070000F0010140F2EC10C2F2000076
:103AE0003223FFF739FD029A9DF8060000F001012C
:103AF00040F28410C2F200006423FFF72DFDFFF7AF
:103B0000C5FD30B9FFE7FFF709FD00208DF80F0074
:103B100003E001208DF80F00FFE79DF80F0004B0CF
:103B200080BD000080B586B0059000200290ADF801
:103B30000E000598FFF722FEFFF710FE01460298DF
:103B40008DF811108DF810009DF81100C00778B1A4
:103B5000FFE7FFF70BFE8DF810009DF81000C0077F
:103B600028B1FFE7FFF786FDADF80E00FFE7FFE79E
:103B7000BDF80E209DF810109DF8110000F0010016
:103B800001F0010100F0AEF8FFF728FC0146059AAC
:103B900040F2EC10C2F200000090FFF7F7FCFFF7D4
:103BA00011FC0146059A40F28410C2F20000019017
:103BB000FFF7ECFC0098FFF7C7FC014601988DF871
:103BC0001310FFF7C1FC8DF812009DF81300C00719
:103BD00018B9FFE7FFF746FF5FE005999DF812006F
:103BE00000F0010000F0DEF840F2F810C2F2000030
:103BF000007868B9FFE740F2F811C2F20001012035
:103C0000087040F27001C2F2000100200870FFE766
:103C10009DF81100C00720B9FFE70020FFF7AAFEBA
:103C20003BE09DF81000C00748B9FFE740F2700183
:103C3000C2F2000100200870FFF79CFE2DE0BDF8E5
:103C40000E0000F02DF840F29010C2F20000007853
:103C5000C00738B1FFE740F27001C2F20001002056
:103C60000870FFE740F2F810C2F200000078012867
:103C70000FD1FFE7BDF80E0041F28831884207D32B
:103C8000FFE740F2F811C2F2000102200870FFE7DE
:103C9000FFE70120FFF76EFEFFE706B080BD0000E2
:103CA00081B0ADF80200BDF80200B0F5965F07D80C
:103CB000FFE740F27001C2F20001012008700EE03F
:103CC000BDF8020041F25041884207D3FFE740F2BD
:103CD0007001C2F2000100200870FFE7FFE701B0A9
:103CE0007047000080B582B08DF807008DF806108F
:103CF000ADF80420FFF7C4FC8DF803009DF8030025
:103D0000032809D1FFE740F29011C2F2000101201F
:103D10000870FFF745FB42E09DF80700C00728B197
:103D2000FFE79DF80600C00748B9FFE740F2901191
:103D3000C2F2000100200870FFF732FB2FE040F2D2
:103D40009010C2F200000078C00778B9FFE7BDF814
:103D5000040041F27071884207D3FFE740F29011EE
:103D6000C2F2000101200870FFE70EE0BDF8040078
:103D700041F2A861884207D8FFE740F29011C2F2F1
:103D8000000100200870FFE7FFE740F29010C2F248
:103D90000000007800F00100FFF702FBFFE702B02F
:103DA00080BD000082B08DF8070000919DF80700EB
:103DB000C00760B1FFE740F2E011C2F2000100204D
:103DC000087040F2E811C2F20001087035E040F2DC
:103DD000E010C2F200000078C00708B1FFE72CE055
:103DE00040F2E810C2F200000078C00768B9FFE7AF
:103DF00040F2E811C2F2000101200870009840F280
:103E0000E411C2F20001086017E0009840F2E411EA
:103E1000C2F200010968401AB0F57A7F0DD3FFE7BE
:103E200040F2E011C2F200010120087040F2E811F6
:103E3000C2F2000100200870FFE702B070470000E6
:103E4000000000000000010203040607080900004A
:103E500000000102030402030405060708090A0B17
:103E60000C0D0E0F101001020203040506070809CD
:103E70000A0B0C0D0E0F101001020000A03E0008EE
:103E8000000000201000000050010008B03E0008B3
:103E900010000020F00B000070010008000000007E
:103EA00000127A0001000000100000000000000075
:04000005080000ED02
:00000001FF
